:020000040800F2
:1000000000000120D1030008210400082104000899
:100010002104000821040008210400080000000059
:1000200000000000000000000000000021040008A3
:100030002104000800000000210400082104000839
:100040000000000021040008210400082104000829
:1000500021040008210400082104000821040008EC
:1000600021040008210400082104000821040008DC
:1000700021040008210400082104000821040008CC
:1000800021040008210400082104000800000000E9
:100090000000000000000000000000002104000833
:1000A000210400082104000821040008210400089C
:1000B000210400082104000821040008210400088C
:1000C000210400082104000821040008210400087C
:1000D0002104000821040008210400080000000099
:1000E0002104000821040008210400080000000089
:1000F00000000000000000000000000021040008D3
:100100000000000021040008210400082104000868
:1001100000000000000000000000000000000000DF
:10012000210400082104000821040008210400081B
:100130002104000800000000000000000000000092
:100140000000000000000000000000002104000882
:1001500021040008210400082104000821040008EB
:100160002104000821040008000000000000000035
:10017000000000000000000000000000000000007F
:10018000000000000000000000000000000000006F
:04019000210400083E
:1001940010B5054C237833B9044B13B10448AFF3BD
:1001A40000800123237010BD000000200000000027
:1001B4006C04000808B5034B1BB103490348AFF3B3
:1001C400008008BD00000000040000206C0400084A
:1001D40080B582B002AF164800F02EF8154800F042
:1001E4002BF8002301930023009300230122022112
:1001F4000F4800F053F802230193002300930023D7
:10020400002203210B4800F049F80321094800F0BB
:10021400CAF80346012B05D101220221044800F04B
:100224009CF8F2E700220221014800F096F8ECE77E
:10023400000002400004024080B483B000AF786044
:100244007B68124A934206D1114B1B6B104A43F050
:100254000103136314E07B680E4A934206D10C4BEE
:100264001B6B0B4A43F00203136309E07B680A4AE1
:10027400934205D1064B1B6B054A43F004031363F9
:1002840000BF0C37BD465DF8047B70470000024098
:1002940000380240000402400008024080B485B0E7
:1002A40000AFF860B9607A603B60FB681A68BB68AD
:1002B4005B00032101FA03F3DB431A40FB681A6075
:1002C400FB681A68BB685B00796801FA03F31A4398
:1002D400FB681A60FB689A68BB685B00032101FA3B
:1002E40003F3DB431A40FB689A60FB689A68BB68B7
:1002F4005B00396801FA03F31A43FB689A60FB68F0
:100304005A680121BB6801FA03F3DB431A40FB6816
:100314005A60FB685A68B969BB6801FA03F31A4367
:10032400FB685A60FB68DA68BB685B00032101FA6A
:1003340003F3DB431A40FB68DA60FB68DA68BB68E6
:100344005B00F96901FA03F31A43FB68DA6000BF42
:100354001437BD465DF8047B704780B485B000AFA8
:10036400F860B9607A607B68012B09D1FB685A692F
:100374000121BB6801FA03F31A43FB685A610CE0DC
:100384007B68002B09D1FB685A690121BB6801FA1B
:1003940003F3DB431A40FB685A6100BF1437BD46C0
:1003A4005DF8047B704780B483B000AF7860396037
:1003B4007B681A693B6842FA03F303F001031846A9
:1003C4000C37BD465DF8047B704700000D48854638
:1003D400AFF300800C480D490D4A002302E0D458C5
:1003E400C4500433C4188C42F9D30A4A0A4C00237B
:1003F40001E013600432A242FBD300F011F8FFF7CE
:10040400E7FEFEE7000001200000002000000020BD
:100414008C040008000000201C000020FEE70000FF
:1004240070B50D4D0D4C641BA4100026A64209D1D5
:100434000B4D0C4C00F018F8641BA4100026A642C7
:1004440005D170BD55F8043B98470136EEE755F8E1
:10045400043B98470136F2E784040008840400084A
:100464008404000888040008F8B500BFF8BC08BC80
:100474009E467047F8B500BFF8BC08BC9E4670475E
:04048400B9010008B2
:0404880095010008D2
:04000005080003D11B
:00000001FF
