:020000040800F2
:1000000000000120C50300081504000815040008BD
:10001000150400081504000815040008000000007D
:1000200000000000000000000000000015040008AF
:10003000150400080000000015040008150400085D
:10004000000000001504000815040008150400084D
:10005000150400081504000815040008150400081C
:10006000150400081504000815040008150400080C
:1000700015040008150400081504000815040008FC
:10008000150400081504000815040008000000000D
:10009000000000000000000000000000150400083F
:1000A00015040008150400081504000815040008CC
:1000B00015040008150400081504000815040008BC
:1000C00015040008150400081504000815040008AC
:1000D00015040008150400081504000800000000BD
:1000E00015040008150400081504000800000000AD
:1000F00000000000000000000000000015040008DF
:10010000000000001504000815040008150400088C
:1001100000000000000000000000000000000000DF
:10012000150400081504000815040008150400084B
:10013000150400080000000000000000000000009E
:10014000000000000000000000000000150400088E
:10015000150400081504000815040008150400081B
:10016000150400081504000800000000000000004D
:10017000000000000000000000000000000000007F
:10018000000000000000000000000000000000006F
:04019000150400084A
:1001940010B5054C237833B9044B13B10448AFF3BD
:1001A40000800123237010BD000000200000000027
:1001B4006004000808B5034B1BB103490348AFF3BF
:1001C400008008BD00000000040000206004000856
:1001D40090B490B000AF07F1140300221A605A6083
:1001E4009A60DA60734B3C1D0FCB84E80F00002348
:1001F400FB63714B1B6B704A43F0010313630023D1
:10020400BB6317E06D4B1A68BB6B5B00032101FAFB
:1002140003F3DB43694913400B60684BDA68BB6B3B
:100224005B00012101FA03F364491343CB60BB6B08
:100234000133BB63BB6B042BE4DD604B1B685F4A7B
:1002440023F4401313605D4B1B685C4A43F4801332
:1002540013605A4B1B68594A23F440031360574BED
:100264001B68564A43F480031360544B1B68534A7B
:1002740023F040431360514B1B68504A43F08043C2
:1002840013604E4B1B6903F01003002B23D1002392
:10029400FB6300237B6309E07B6B9B0040333B449F
:1002A400002243F82C2C7B6B01337B637B6B032B89
:1002B400F2DD424B5B69414A23F4806353613F4B57
:1002C4005B693E4A23F4006353613C4B5B693B4AE0
:1002D40023F40043536100233B6367E0374B1A69FF
:1002E4003B6B42FA03F303F00103002B5BD13B6B3E
:1002F4005A1CFB6B9B0040333B4443F82C2CFB6B98
:100304000133FB6300BF2D4B1A693B6B42FA03F3C5
:1003140003F00103002BF6D0FB6B042B43D1012324
:10032400FB620023BB6213E0BB6A9B0040333B4487
:1003340053F82C2CBB6A9B0040333B4453F83C3CA1
:100344009A4202D00023FB6205E0BB6A0133BB6220
:10035400BB6A032BE8DDFB6A002B06D0174B5B69F5
:10036400164A43F4806353610BE0144B5B69134AF0
:1003740043F400635361114B5B69104A43F4004337
:1003840053610023FB6300237B6209E07B6A9B00CB
:1003940040333B44002243F82C2C7B6A01337B62BC
:1003A4007B6A032BF2DD3B6B01333B633B6B032B1B
:1003B40094DD66E77804000800380240000002403B
:1003C4000D488546AFF300800C480D490D4A0023C3
:1003D40002E0D458C4500433C4188C42F9D30A4AF6
:1003E4000A4C002301E013600432A242FBD300F064
:1003F40011F8FFF7EDFEFEE70000012000000020E9
:100404000000002090040008000000201C000020D0
:10041400FEE7000070B50D4D0D4C641BA4100026C2
:10042400A64209D10B4D0C4C00F018F8641BA41023
:100434000026A64205D170BD55F8043B9847013605
:10044400EEE755F8043B98470136F2E788040008C4
:1004540088040008880400088C040008F8B500BF6C
:10046400F8BC08BC9E467047F8B500BFF8BC08BC91
:040474009E467047E9
:10047800010000000200000003000000040000006A
:04048800B9010008AE
:04048C0095010008CE
:04000005080003C527
:00000001FF
